{
  "contractName": "EducationPage",
  "abi": [
    {
      "inputs": [],
      "payable": false,
      "stateMutability": "nonpayable",
      "type": "constructor"
    },
    {
      "anonymous": false,
      "inputs": [
        {
          "indexed": false,
          "internalType": "uint256",
          "name": "id",
          "type": "uint256"
        },
        {
          "indexed": false,
          "internalType": "bool",
          "name": "completed",
          "type": "bool"
        }
      ],
      "name": "AssignmentCompleted",
      "type": "event"
    },
    {
      "anonymous": false,
      "inputs": [
        {
          "indexed": false,
          "internalType": "uint256",
          "name": "id",
          "type": "uint256"
        },
        {
          "indexed": false,
          "internalType": "string",
          "name": "content",
          "type": "string"
        },
        {
          "indexed": false,
          "internalType": "bool",
          "name": "completed",
          "type": "bool"
        }
      ],
      "name": "AssignmentCreated",
      "type": "event"
    },
    {
      "constant": true,
      "inputs": [],
      "name": "assignmentCount",
      "outputs": [
        {
          "internalType": "uint256",
          "name": "",
          "type": "uint256"
        }
      ],
      "payable": false,
      "stateMutability": "view",
      "type": "function"
    },
    {
      "constant": true,
      "inputs": [
        {
          "internalType": "uint256",
          "name": "",
          "type": "uint256"
        }
      ],
      "name": "assignments",
      "outputs": [
        {
          "internalType": "uint256",
          "name": "id",
          "type": "uint256"
        },
        {
          "internalType": "string",
          "name": "content",
          "type": "string"
        },
        {
          "internalType": "bool",
          "name": "completed",
          "type": "bool"
        }
      ],
      "payable": false,
      "stateMutability": "view",
      "type": "function"
    },
    {
      "constant": false,
      "inputs": [
        {
          "internalType": "string",
          "name": "_content",
          "type": "string"
        }
      ],
      "name": "createAssignment",
      "outputs": [],
      "payable": false,
      "stateMutability": "nonpayable",
      "type": "function"
    },
    {
      "constant": false,
      "inputs": [
        {
          "internalType": "uint256",
          "name": "_id",
          "type": "uint256"
        }
      ],
      "name": "toggleCompleted",
      "outputs": [],
      "payable": false,
      "stateMutability": "nonpayable",
      "type": "function"
    }
  ],
  "bytecode": "0x60806040526000805534801561001457600080fd5b5060408051808201909152601681527f4e65772041737369676e6d656e74204372656174656400000000000000000000602082015261005b906001600160e01b0361006016565b61021f565b60008054600190810180835560408051606081018252828152602080820187815282840187905293865284815291909420845181559151805192936100ad93908501929190910190610184565b5060408201518160020160006101000a81548160ff0219169083151502179055509050507ff4d85ff71a02a9ac00b7db84ab4e9135b289b36e4c2b2197ff5f70febb5c4249600054826000604051808481526020018060200183151515158152602001828103825284818151815260200191508051906020019080838360005b8381101561014557818101518382015260200161012d565b50505050905090810190601f1680156101725780820380516001836020036101000a031916815260200191505b5094505050505060405180910390a150565b828054600181600116156101000203166002900490600052602060002090601f016020900481019282601f106101c557805160ff19168380011785556101f2565b828001600101855582156101f2579182015b828111156101f25782518255916020019190600101906101d7565b506101fe929150610202565b5090565b61021c91905b808211156101fe5760008155600101610208565b90565b6106038061022e6000396000f3fe608060405234801561001057600080fd5b506004361061004c5760003560e01c8063455f5024146100515780634e50c75c14610070578063d86f636914610117578063e6bb2807146101bd575b600080fd5b61006e6004803603602081101561006757600080fd5b50356101d7565b005b61008d6004803603602081101561008657600080fd5b5035610337565b604051808481526020018060200183151515158152602001828103825284818151815260200191508051906020019080838360005b838110156100da5781810151838201526020016100c2565b50505050905090810190601f1680156101075780820380516001836020036101000a031916815260200191505b5094505050505060405180910390f35b61006e6004803603602081101561012d57600080fd5b81019060208101813564010000000081111561014857600080fd5b82018360208201111561015a57600080fd5b8035906020019184600183028401116401000000008311171561017c57600080fd5b91908080601f0160208091040260200160405190810160405280939291908181526020018383808284376000920191909152509295506103e6945050505050565b6101c561050a565b60408051918252519081900360200190f35b6101df610510565b60008281526001602081815260409283902083516060810185528154815281840180548651600296821615610100026000190190911695909504601f810185900485028601850190965285855290949193858401939092908301828280156102885780601f1061025d57610100808354040283529160200191610288565b820191906000526020600020905b81548152906001019060200180831161026b57829003601f168201915b50505091835250506002919091015460ff161515602091820152604080830180511590526000858152600180845291902083518155838301518051949550859491936102d993850192910190610533565b50604091820151600291909101805460ff1916911515919091179055818101518151848152901515602082015281517fbbb2b9cb8a9bcb827cb632f1bfc1b99e55b07df8c4645dc66e18f0f089e310d8929181900390910190a15050565b600160208181526000928352604092839020805481840180548651600296821615610100026000190190911695909504601f810185900485028601850190965285855290949193929091908301828280156103d35780601f106103a8576101008083540402835291602001916103d3565b820191906000526020600020905b8154815290600101906020018083116103b657829003601f168201915b5050506002909301549192505060ff1683565b600080546001908101808355604080516060810182528281526020808201878152828401879052938652848152919094208451815591518051929361043393908501929190910190610533565b5060408201518160020160006101000a81548160ff0219169083151502179055509050507ff4d85ff71a02a9ac00b7db84ab4e9135b289b36e4c2b2197ff5f70febb5c4249600054826000604051808481526020018060200183151515158152602001828103825284818151815260200191508051906020019080838360005b838110156104cb5781810151838201526020016104b3565b50505050905090810190601f1680156104f85780820380516001836020036101000a031916815260200191505b5094505050505060405180910390a150565b60005481565b604051806060016040528060008152602001606081526020016000151581525090565b828054600181600116156101000203166002900490600052602060002090601f016020900481019282601f1061057457805160ff19168380011785556105a1565b828001600101855582156105a1579182015b828111156105a1578251825591602001919060010190610586565b506105ad9291506105b1565b5090565b6105cb91905b808211156105ad57600081556001016105b7565b9056fea265627a7a7231582018b047c695e531dd788fb95b0e2d2d42eeb73899b13b8fce01147c5582db53f264736f6c63430005100032",
  "source": "pragma solidity 0.5.16;\n\ncontract EducationPage{\n    uint public assignmentCount = 0;\n\n  struct Assignment {\n    uint id;\n    string content;\n    bool completed;\n  }\n\n  mapping(uint => Assignment) public assignments;\n\n  event AssignmentCreated(\n    uint id,\n    string content,\n    bool completed\n  );\n\n  event AssignmentCompleted(\n    uint id,\n    bool completed\n  );\n\n  constructor() public {\n    createAssignment(\"New Assignment Created\");\n  }\n\n  function createAssignment(string memory _content) public {\n    assignmentCount++;\n    assignments[assignmentCount] = Assignment(assignmentCount, _content, false);\n    emit AssignmentCreated(assignmentCount, _content, false);\n  }\n\n  function toggleCompleted(uint _id) public {\n    Assignment memory _assignment = assignments[_id];\n    _assignment.completed = !_assignment.completed;\n    assignments[_id] = _assignment;\n    emit AssignmentCompleted(_id, _assignment.completed);\n  }\n\n}",
  "sourcePath": "/home/cse598/Downloads/BlockchainEDU/contracts/EducationPage.sol",
  "compiler": {
    "name": "solc",
    "version": "0.5.16+commit.9c3226ce.Emscripten.clang"
  },
  "schemaVersion": "3.4.16",
  "updatedAt": "2023-11-12T15:39:11.405Z",
  "networkType": "ethereum",
  "devdoc": {
    "methods": {}
  },
  "userdoc": {
    "methods": {}
  }
}