{
  "contractName": "EducationPage",
  "abi": [
    {
      "constant": true,
      "inputs": [],
      "name": "contractCount",
      "outputs": [
        {
          "internalType": "uint256",
          "name": "",
          "type": "uint256"
        }
      ],
      "payable": false,
      "stateMutability": "view",
      "type": "function"
    }
  ],
  "bytecode": "0x608060405260008055348015601357600080fd5b506080806100226000396000f3fe6080604052348015600f57600080fd5b506004361060285760003560e01c80638736381a14602d575b600080fd5b60336045565b60408051918252519081900360200190f35b6000548156fea265627a7a72315820e60fc9b82e9a5b08b355ee0845c38c433d2c1d594573251f21e5179356c832c764736f6c63430005100032",
  "source": "pragma solidity 0.5.16;\n\ncontract EducationPage{\n    uint public contractCount = 0;\n}",
  "sourcePath": "/home/cse598/Downloads/BlockchainEDU/contracts/EducationPage.sol",
  "compiler": {
    "name": "solc",
    "version": "0.5.16+commit.9c3226ce.Emscripten.clang"
  },
  "schemaVersion": "3.4.16",
  "updatedAt": "2023-11-09T22:11:20.578Z",
  "networkType": "ethereum",
  "devdoc": {
    "methods": {}
  },
  "userdoc": {
    "methods": {}
  }
}