{
  "contractName": "EducationPage",
  "abi": [
    {
      "inputs": [],
      "name": "contractCount",
      "outputs": [
        {
          "internalType": "uint256",
          "name": "",
          "type": "uint256"
        }
      ],
      "stateMutability": "view",
      "type": "function"
    }
  ],
  "bytecode": "0x60806040525f8055348015610012575f80fd5b5060ac8061001f5f395ff3fe6080604052348015600e575f80fd5b50600436106026575f3560e01c80638736381a14602a575b5f80fd5b60306044565b604051603b9190605f565b60405180910390f35b5f5481565b5f819050919050565b6059816049565b82525050565b5f60208201905060705f8301846052565b9291505056fea2646970667358221220f6f526f533a66a16b94492530ddb74652f5d1177e03239b0e963e6936598194d64736f6c63430008150033",
  "immutableReferences": {},
  "source": "pragma solidity ^0.8.21;\n\ncontract EducationPage{\n    uint public contractCount = 0;\n}",
  "sourcePath": "/home/cse598/Downloads/BlockchainEDU/contracts/EducationPage.sol",
  "compiler": {
    "name": "solc",
    "version": "0.8.21+commit.d9974bed.Emscripten.clang"
  },
  "schemaVersion": "3.4.16",
  "updatedAt": "2023-10-29T20:32:53.929Z",
  "devdoc": {
    "kind": "dev",
    "methods": {},
    "version": 1
  },
  "userdoc": {
    "kind": "user",
    "methods": {},
    "version": 1
  }
}